{
  "address": "0xcB64a719D7e7749BFD18dc1815f1EF3C28F083E2",
  "abi": [
    {
      "inputs": [
        {
          "internalType": "uint256",
          "name": "initialSupply_",
          "type": "uint256"
        },
        {
          "internalType": "address",
          "name": "feeReceiver_",
          "type": "address"
        },
        {
          "internalType": "address",
          "name": "swapRouter_",
          "type": "address"
        },
        {
          "internalType": "address[]",
          "name": "collectors_",
          "type": "address[]"
        },
        {
          "internalType": "uint256[]",
          "name": "shares_",
          "type": "uint256[]"
        }
      ],
      "stateMutability": "payable",
      "type": "constructor"
    },
    {
      "inputs": [],
      "name": "InvalidShortString",
      "type": "error"
    },
    {
      "inputs": [
        {
          "internalType": "string",
          "name": "str",
          "type": "string"
        }
      ],
      "name": "StringTooLong",
      "type": "error"
    },
    {
      "anonymous": false,
      "inputs": [
        {
          "indexed": true,
          "internalType": "address",
          "name": "owner",
          "type": "address"
        },
        {
          "indexed": true,
          "internalType": "address",
          "name": "spender",
          "type": "address"
        },
        {
          "indexed": false,
          "internalType": "uint256",
          "name": "value",
          "type": "uint256"
        }
      ],
      "name": "Approval",
      "type": "event"
    },
    {
      "anonymous": false,
      "inputs": [
        {
          "indexed": true,
          "internalType": "address",
          "name": "delegator",
          "type": "address"
        },
        {
          "indexed": true,
          "internalType": "address",
          "name": "fromDelegate",
          "type": "address"
        },
        {
          "indexed": true,
          "internalType": "address",
          "name": "toDelegate",
          "type": "address"
        }
      ],
      "name": "DelegateChanged",
      "type": "event"
    },
    {
      "anonymous": false,
      "inputs": [
        {
          "indexed": true,
          "internalType": "address",
          "name": "delegate",
          "type": "address"
        },
        {
          "indexed": false,
          "internalType": "uint256",
          "name": "previousBalance",
          "type": "uint256"
        },
        {
          "indexed": false,
          "internalType": "uint256",
          "name": "newBalance",
          "type": "uint256"
        }
      ],
      "name": "DelegateVotesChanged",
      "type": "event"
    },
    {
      "anonymous": false,
      "inputs": [],
      "name": "EIP712DomainChanged",
      "type": "event"
    },
    {
      "anonymous": false,
      "inputs": [
        {
          "indexed": true,
          "internalType": "address",
          "name": "account",
          "type": "address"
        },
        {
          "indexed": false,
          "internalType": "bool",
          "name": "excluded",
          "type": "bool"
        }
      ],
      "name": "ExcludedFromFees",
      "type": "event"
    },
    {
      "anonymous": false,
      "inputs": [
        {
          "indexed": true,
          "internalType": "address",
          "name": "receiver",
          "type": "address"
        },
        {
          "indexed": false,
          "internalType": "uint256",
          "name": "amount",
          "type": "uint256"
        }
      ],
      "name": "FeeCollected",
      "type": "event"
    },
    {
      "anonymous": false,
      "inputs": [
        {
          "indexed": true,
          "internalType": "address",
          "name": "account",
          "type": "address"
        },
        {
          "indexed": false,
          "internalType": "uint256",
          "name": "share",
          "type": "uint256"
        }
      ],
      "name": "FeeCollectorAdded",
      "type": "event"
    },
    {
      "anonymous": false,
      "inputs": [
        {
          "indexed": true,
          "internalType": "address",
          "name": "account",
          "type": "address"
        }
      ],
      "name": "FeeCollectorRemoved",
      "type": "event"
    },
    {
      "anonymous": false,
      "inputs": [
        {
          "indexed": true,
          "internalType": "address",
          "name": "account",
          "type": "address"
        },
        {
          "indexed": false,
          "internalType": "uint256",
          "name": "oldShare",
          "type": "uint256"
        },
        {
          "indexed": false,
          "internalType": "uint256",
          "name": "newShare",
          "type": "uint256"
        }
      ],
      "name": "FeeCollectorUpdated",
      "type": "event"
    },
    {
      "anonymous": false,
      "inputs": [
        {
          "components": [
            {
              "internalType": "bool",
              "name": "feesInToken",
              "type": "bool"
            },
            {
              "internalType": "uint16",
              "name": "buyFees",
              "type": "uint16"
            },
            {
              "internalType": "uint16",
              "name": "sellFees",
              "type": "uint16"
            },
            {
              "internalType": "uint16",
              "name": "transferFees",
              "type": "uint16"
            },
            {
              "internalType": "uint16",
              "name": "burnFeeRatio",
              "type": "uint16"
            },
            {
              "internalType": "uint16",
              "name": "liquidityFeeRatio",
              "type": "uint16"
            },
            {
              "internalType": "uint16",
              "name": "collectorsFeeRatio",
              "type": "uint16"
            }
          ],
          "indexed": false,
          "internalType": "struct TaxableToken.FeeConfiguration",
          "name": "configuration",
          "type": "tuple"
        }
      ],
      "name": "FeeConfigurationUpdated",
      "type": "event"
    },
    {
      "anonymous": false,
      "inputs": [
        {
          "indexed": true,
          "internalType": "address",
          "name": "previousOwner",
          "type": "address"
        },
        {
          "indexed": true,
          "internalType": "address",
          "name": "newOwner",
          "type": "address"
        }
      ],
      "name": "OwnershipTransferred",
      "type": "event"
    },
    {
      "anonymous": false,
      "inputs": [
        {
          "indexed": true,
          "internalType": "address",
          "name": "pairAddress",
          "type": "address"
        },
        {
          "indexed": false,
          "internalType": "bool",
          "name": "isLp",
          "type": "bool"
        }
      ],
      "name": "SetLpPool",
      "type": "event"
    },
    {
      "anonymous": false,
      "inputs": [
        {
          "indexed": true,
          "internalType": "address",
          "name": "router",
          "type": "address"
        },
        {
          "indexed": true,
          "internalType": "address",
          "name": "pair",
          "type": "address"
        }
      ],
      "name": "SwapRouterUpdated",
      "type": "event"
    },
    {
      "anonymous": false,
      "inputs": [
        {
          "indexed": true,
          "internalType": "address",
          "name": "updater",
          "type": "address"
        }
      ],
      "name": "TaxRateUpdaterChanged",
      "type": "event"
    },
    {
      "anonymous": false,
      "inputs": [
        {
          "indexed": true,
          "internalType": "address",
          "name": "from",
          "type": "address"
        },
        {
          "indexed": true,
          "internalType": "address",
          "name": "to",
          "type": "address"
        },
        {
          "indexed": false,
          "internalType": "uint256",
          "name": "value",
          "type": "uint256"
        }
      ],
      "name": "Transfer",
      "type": "event"
    },
    {
      "inputs": [],
      "name": "BURN_ADDRESS",
      "outputs": [
        {
          "internalType": "address",
          "name": "",
          "type": "address"
        }
      ],
      "stateMutability": "view",
      "type": "function"
    },
    {
      "inputs": [],
      "name": "CLOCK_MODE",
      "outputs": [
        {
          "internalType": "string",
          "name": "",
          "type": "string"
        }
      ],
      "stateMutability": "view",
      "type": "function"
    },
    {
      "inputs": [],
      "name": "DOMAIN_SEPARATOR",
      "outputs": [
        {
          "internalType": "bytes32",
          "name": "",
          "type": "bytes32"
        }
      ],
      "stateMutability": "view",
      "type": "function"
    },
    {
      "inputs": [],
      "name": "FEE_PRECISION",
      "outputs": [
        {
          "internalType": "uint16",
          "name": "",
          "type": "uint16"
        }
      ],
      "stateMutability": "view",
      "type": "function"
    },
    {
      "inputs": [],
      "name": "MAX_COLLECTORS",
      "outputs": [
        {
          "internalType": "uint256",
          "name": "",
          "type": "uint256"
        }
      ],
      "stateMutability": "view",
      "type": "function"
    },
    {
      "inputs": [],
      "name": "MAX_FEE",
      "outputs": [
        {
          "internalType": "uint16",
          "name": "",
          "type": "uint16"
        }
      ],
      "stateMutability": "view",
      "type": "function"
    },
    {
      "inputs": [
        {
          "internalType": "address",
          "name": "account",
          "type": "address"
        },
        {
          "internalType": "uint256",
          "name": "share",
          "type": "uint256"
        }
      ],
      "name": "addFeeCollector",
      "outputs": [],
      "stateMutability": "nonpayable",
      "type": "function"
    },
    {
      "inputs": [
        {
          "internalType": "address",
          "name": "owner",
          "type": "address"
        },
        {
          "internalType": "address",
          "name": "spender",
          "type": "address"
        }
      ],
      "name": "allowance",
      "outputs": [
        {
          "internalType": "uint256",
          "name": "",
          "type": "uint256"
        }
      ],
      "stateMutability": "view",
      "type": "function"
    },
    {
      "inputs": [
        {
          "internalType": "address",
          "name": "spender",
          "type": "address"
        },
        {
          "internalType": "uint256",
          "name": "amount",
          "type": "uint256"
        }
      ],
      "name": "approve",
      "outputs": [
        {
          "internalType": "bool",
          "name": "",
          "type": "bool"
        }
      ],
      "stateMutability": "nonpayable",
      "type": "function"
    },
    {
      "inputs": [],
      "name": "autoProcessFees",
      "outputs": [
        {
          "internalType": "bool",
          "name": "",
          "type": "bool"
        }
      ],
      "stateMutability": "view",
      "type": "function"
    },
    {
      "inputs": [
        {
          "internalType": "address",
          "name": "account",
          "type": "address"
        }
      ],
      "name": "balanceOf",
      "outputs": [
        {
          "internalType": "uint256",
          "name": "",
          "type": "uint256"
        }
      ],
      "stateMutability": "view",
      "type": "function"
    },
    {
      "inputs": [
        {
          "internalType": "address",
          "name": "account",
          "type": "address"
        },
        {
          "internalType": "uint32",
          "name": "pos",
          "type": "uint32"
        }
      ],
      "name": "checkpoints",
      "outputs": [
        {
          "components": [
            {
              "internalType": "uint32",
              "name": "fromBlock",
              "type": "uint32"
            },
            {
              "internalType": "uint224",
              "name": "votes",
              "type": "uint224"
            }
          ],
          "internalType": "struct ERC20Votes.Checkpoint",
          "name": "",
          "type": "tuple"
        }
      ],
      "stateMutability": "view",
      "type": "function"
    },
    {
      "inputs": [],
      "name": "clock",
      "outputs": [
        {
          "internalType": "uint48",
          "name": "",
          "type": "uint48"
        }
      ],
      "stateMutability": "view",
      "type": "function"
    },
    {
      "inputs": [],
      "name": "decimals",
      "outputs": [
        {
          "internalType": "uint8",
          "name": "",
          "type": "uint8"
        }
      ],
      "stateMutability": "pure",
      "type": "function"
    },
    {
      "inputs": [
        {
          "internalType": "address",
          "name": "spender",
          "type": "address"
        },
        {
          "internalType": "uint256",
          "name": "subtractedValue",
          "type": "uint256"
        }
      ],
      "name": "decreaseAllowance",
      "outputs": [
        {
          "internalType": "bool",
          "name": "",
          "type": "bool"
        }
      ],
      "stateMutability": "nonpayable",
      "type": "function"
    },
    {
      "inputs": [
        {
          "internalType": "address",
          "name": "delegatee",
          "type": "address"
        }
      ],
      "name": "delegate",
      "outputs": [],
      "stateMutability": "nonpayable",
      "type": "function"
    },
    {
      "inputs": [
        {
          "internalType": "address",
          "name": "delegatee",
          "type": "address"
        },
        {
          "internalType": "uint256",
          "name": "nonce",
          "type": "uint256"
        },
        {
          "internalType": "uint256",
          "name": "expiry",
          "type": "uint256"
        },
        {
          "internalType": "uint8",
          "name": "v",
          "type": "uint8"
        },
        {
          "internalType": "bytes32",
          "name": "r",
          "type": "bytes32"
        },
        {
          "internalType": "bytes32",
          "name": "s",
          "type": "bytes32"
        }
      ],
      "name": "delegateBySig",
      "outputs": [],
      "stateMutability": "nonpayable",
      "type": "function"
    },
    {
      "inputs": [
        {
          "internalType": "address",
          "name": "account",
          "type": "address"
        }
      ],
      "name": "delegates",
      "outputs": [
        {
          "internalType": "address",
          "name": "",
          "type": "address"
        }
      ],
      "stateMutability": "view",
      "type": "function"
    },
    {
      "inputs": [
        {
          "internalType": "uint256",
          "name": "amount",
          "type": "uint256"
        },
        {
          "internalType": "bool",
          "name": "inToken",
          "type": "bool"
        }
      ],
      "name": "distributeFees",
      "outputs": [],
      "stateMutability": "nonpayable",
      "type": "function"
    },
    {
      "inputs": [],
      "name": "eip712Domain",
      "outputs": [
        {
          "internalType": "bytes1",
          "name": "fields",
          "type": "bytes1"
        },
        {
          "internalType": "string",
          "name": "name",
          "type": "string"
        },
        {
          "internalType": "string",
          "name": "version",
          "type": "string"
        },
        {
          "internalType": "uint256",
          "name": "chainId",
          "type": "uint256"
        },
        {
          "internalType": "address",
          "name": "verifyingContract",
          "type": "address"
        },
        {
          "internalType": "bytes32",
          "name": "salt",
          "type": "bytes32"
        },
        {
          "internalType": "uint256[]",
          "name": "extensions",
          "type": "uint256[]"
        }
      ],
      "stateMutability": "view",
      "type": "function"
    },
    {
      "inputs": [
        {
          "internalType": "address",
          "name": "account",
          "type": "address"
        }
      ],
      "name": "feeCollectorShare",
      "outputs": [
        {
          "internalType": "uint256",
          "name": "",
          "type": "uint256"
        }
      ],
      "stateMutability": "view",
      "type": "function"
    },
    {
      "inputs": [
        {
          "internalType": "uint256",
          "name": "startIndex",
          "type": "uint256"
        },
        {
          "internalType": "uint256",
          "name": "count",
          "type": "uint256"
        }
      ],
      "name": "feeCollectors",
      "outputs": [
        {
          "internalType": "address[]",
          "name": "",
          "type": "address[]"
        }
      ],
      "stateMutability": "view",
      "type": "function"
    },
    {
      "inputs": [],
      "name": "feeConfiguration",
      "outputs": [
        {
          "internalType": "bool",
          "name": "feesInToken",
          "type": "bool"
        },
        {
          "internalType": "uint16",
          "name": "buyFees",
          "type": "uint16"
        },
        {
          "internalType": "uint16",
          "name": "sellFees",
          "type": "uint16"
        },
        {
          "internalType": "uint16",
          "name": "transferFees",
          "type": "uint16"
        },
        {
          "internalType": "uint16",
          "name": "burnFeeRatio",
          "type": "uint16"
        },
        {
          "internalType": "uint16",
          "name": "liquidityFeeRatio",
          "type": "uint16"
        },
        {
          "internalType": "uint16",
          "name": "collectorsFeeRatio",
          "type": "uint16"
        }
      ],
      "stateMutability": "view",
      "type": "function"
    },
    {
      "inputs": [
        {
          "internalType": "uint256",
          "name": "timepoint",
          "type": "uint256"
        }
      ],
      "name": "getPastTotalSupply",
      "outputs": [
        {
          "internalType": "uint256",
          "name": "",
          "type": "uint256"
        }
      ],
      "stateMutability": "view",
      "type": "function"
    },
    {
      "inputs": [
        {
          "internalType": "address",
          "name": "account",
          "type": "address"
        },
        {
          "internalType": "uint256",
          "name": "timepoint",
          "type": "uint256"
        }
      ],
      "name": "getPastVotes",
      "outputs": [
        {
          "internalType": "uint256",
          "name": "",
          "type": "uint256"
        }
      ],
      "stateMutability": "view",
      "type": "function"
    },
    {
      "inputs": [
        {
          "internalType": "address",
          "name": "account",
          "type": "address"
        }
      ],
      "name": "getVotes",
      "outputs": [
        {
          "internalType": "uint256",
          "name": "",
          "type": "uint256"
        }
      ],
      "stateMutability": "view",
      "type": "function"
    },
    {
      "inputs": [
        {
          "internalType": "address",
          "name": "spender",
          "type": "address"
        },
        {
          "internalType": "uint256",
          "name": "addedValue",
          "type": "uint256"
        }
      ],
      "name": "increaseAllowance",
      "outputs": [
        {
          "internalType": "bool",
          "name": "",
          "type": "bool"
        }
      ],
      "stateMutability": "nonpayable",
      "type": "function"
    },
    {
      "inputs": [
        {
          "internalType": "address",
          "name": "account",
          "type": "address"
        }
      ],
      "name": "isExcludedFromFees",
      "outputs": [
        {
          "internalType": "bool",
          "name": "",
          "type": "bool"
        }
      ],
      "stateMutability": "view",
      "type": "function"
    },
    {
      "inputs": [
        {
          "internalType": "address",
          "name": "account",
          "type": "address"
        }
      ],
      "name": "isFeeCollector",
      "outputs": [
        {
          "internalType": "bool",
          "name": "",
          "type": "bool"
        }
      ],
      "stateMutability": "view",
      "type": "function"
    },
    {
      "inputs": [
        {
          "internalType": "address",
          "name": "pairAddress",
          "type": "address"
        }
      ],
      "name": "isLpPool",
      "outputs": [
        {
          "internalType": "bool",
          "name": "",
          "type": "bool"
        }
      ],
      "stateMutability": "view",
      "type": "function"
    },
    {
      "inputs": [],
      "name": "liquidityOwner",
      "outputs": [
        {
          "internalType": "address",
          "name": "",
          "type": "address"
        }
      ],
      "stateMutability": "view",
      "type": "function"
    },
    {
      "inputs": [],
      "name": "name",
      "outputs": [
        {
          "internalType": "string",
          "name": "",
          "type": "string"
        }
      ],
      "stateMutability": "view",
      "type": "function"
    },
    {
      "inputs": [
        {
          "internalType": "address",
          "name": "owner",
          "type": "address"
        }
      ],
      "name": "nonces",
      "outputs": [
        {
          "internalType": "uint256",
          "name": "",
          "type": "uint256"
        }
      ],
      "stateMutability": "view",
      "type": "function"
    },
    {
      "inputs": [
        {
          "internalType": "address",
          "name": "account",
          "type": "address"
        }
      ],
      "name": "numCheckpoints",
      "outputs": [
        {
          "internalType": "uint32",
          "name": "",
          "type": "uint32"
        }
      ],
      "stateMutability": "view",
      "type": "function"
    },
    {
      "inputs": [],
      "name": "numTokensToSwap",
      "outputs": [
        {
          "internalType": "uint256",
          "name": "",
          "type": "uint256"
        }
      ],
      "stateMutability": "view",
      "type": "function"
    },
    {
      "inputs": [],
      "name": "owner",
      "outputs": [
        {
          "internalType": "address",
          "name": "",
          "type": "address"
        }
      ],
      "stateMutability": "view",
      "type": "function"
    },
    {
      "inputs": [
        {
          "internalType": "address",
          "name": "owner",
          "type": "address"
        },
        {
          "internalType": "address",
          "name": "spender",
          "type": "address"
        },
        {
          "internalType": "uint256",
          "name": "value",
          "type": "uint256"
        },
        {
          "internalType": "uint256",
          "name": "deadline",
          "type": "uint256"
        },
        {
          "internalType": "uint8",
          "name": "v",
          "type": "uint8"
        },
        {
          "internalType": "bytes32",
          "name": "r",
          "type": "bytes32"
        },
        {
          "internalType": "bytes32",
          "name": "s",
          "type": "bytes32"
        }
      ],
      "name": "permit",
      "outputs": [],
      "stateMutability": "nonpayable",
      "type": "function"
    },
    {
      "inputs": [
        {
          "internalType": "uint256",
          "name": "amount",
          "type": "uint256"
        },
        {
          "internalType": "uint256",
          "name": "minAmountOut",
          "type": "uint256"
        }
      ],
      "name": "processFees",
      "outputs": [],
      "stateMutability": "nonpayable",
      "type": "function"
    },
    {
      "inputs": [
        {
          "internalType": "address",
          "name": "account",
          "type": "address"
        }
      ],
      "name": "removeFeeCollector",
      "outputs": [],
      "stateMutability": "nonpayable",
      "type": "function"
    },
    {
      "inputs": [],
      "name": "renounceOwnership",
      "outputs": [],
      "stateMutability": "nonpayable",
      "type": "function"
    },
    {
      "inputs": [
        {
          "internalType": "bool",
          "name": "autoProcess",
          "type": "bool"
        }
      ],
      "name": "setAutoprocessFees",
      "outputs": [],
      "stateMutability": "nonpayable",
      "type": "function"
    },
    {
      "inputs": [
        {
          "components": [
            {
              "internalType": "bool",
              "name": "feesInToken",
              "type": "bool"
            },
            {
              "internalType": "uint16",
              "name": "buyFees",
              "type": "uint16"
            },
            {
              "internalType": "uint16",
              "name": "sellFees",
              "type": "uint16"
            },
            {
              "internalType": "uint16",
              "name": "transferFees",
              "type": "uint16"
            },
            {
              "internalType": "uint16",
              "name": "burnFeeRatio",
              "type": "uint16"
            },
            {
              "internalType": "uint16",
              "name": "liquidityFeeRatio",
              "type": "uint16"
            },
            {
              "internalType": "uint16",
              "name": "collectorsFeeRatio",
              "type": "uint16"
            }
          ],
          "internalType": "struct TaxableToken.FeeConfiguration",
          "name": "configuration",
          "type": "tuple"
        }
      ],
      "name": "setFeeConfiguration",
      "outputs": [],
      "stateMutability": "nonpayable",
      "type": "function"
    },
    {
      "inputs": [
        {
          "internalType": "address",
          "name": "account",
          "type": "address"
        },
        {
          "internalType": "bool",
          "name": "excluded",
          "type": "bool"
        }
      ],
      "name": "setIsExcludedFromFees",
      "outputs": [],
      "stateMutability": "nonpayable",
      "type": "function"
    },
    {
      "inputs": [
        {
          "internalType": "address",
          "name": "pairAddress",
          "type": "address"
        },
        {
          "internalType": "bool",
          "name": "isLp",
          "type": "bool"
        }
      ],
      "name": "setIsLpPool",
      "outputs": [],
      "stateMutability": "nonpayable",
      "type": "function"
    },
    {
      "inputs": [
        {
          "internalType": "address",
          "name": "newOwner",
          "type": "address"
        }
      ],
      "name": "setLiquidityOwner",
      "outputs": [],
      "stateMutability": "nonpayable",
      "type": "function"
    },
    {
      "inputs": [
        {
          "internalType": "uint256",
          "name": "amount",
          "type": "uint256"
        }
      ],
      "name": "setNumTokensToSwap",
      "outputs": [],
      "stateMutability": "nonpayable",
      "type": "function"
    },
    {
      "inputs": [
        {
          "internalType": "address",
          "name": "newRouter",
          "type": "address"
        }
      ],
      "name": "setSwapRouter",
      "outputs": [],
      "stateMutability": "nonpayable",
      "type": "function"
    },
    {
      "inputs": [
        {
          "internalType": "address",
          "name": "updater",
          "type": "address"
        }
      ],
      "name": "setTaxRateUpdater",
      "outputs": [],
      "stateMutability": "nonpayable",
      "type": "function"
    },
    {
      "inputs": [
        {
          "internalType": "uint256",
          "name": "buyRate",
          "type": "uint256"
        },
        {
          "internalType": "uint256",
          "name": "sellRate",
          "type": "uint256"
        }
      ],
      "name": "setTaxRates",
      "outputs": [],
      "stateMutability": "nonpayable",
      "type": "function"
    },
    {
      "inputs": [],
      "name": "swapPair",
      "outputs": [
        {
          "internalType": "address",
          "name": "",
          "type": "address"
        }
      ],
      "stateMutability": "view",
      "type": "function"
    },
    {
      "inputs": [],
      "name": "swapRouter",
      "outputs": [
        {
          "internalType": "contract IUniswapV2Router02",
          "name": "",
          "type": "address"
        }
      ],
      "stateMutability": "view",
      "type": "function"
    },
    {
      "inputs": [],
      "name": "symbol",
      "outputs": [
        {
          "internalType": "string",
          "name": "",
          "type": "string"
        }
      ],
      "stateMutability": "view",
      "type": "function"
    },
    {
      "inputs": [],
      "name": "taxRateUpdater",
      "outputs": [
        {
          "internalType": "address",
          "name": "",
          "type": "address"
        }
      ],
      "stateMutability": "view",
      "type": "function"
    },
    {
      "inputs": [],
      "name": "totalFeeCollectorsShares",
      "outputs": [
        {
          "internalType": "uint256",
          "name": "",
          "type": "uint256"
        }
      ],
      "stateMutability": "view",
      "type": "function"
    },
    {
      "inputs": [],
      "name": "totalSupply",
      "outputs": [
        {
          "internalType": "uint256",
          "name": "",
          "type": "uint256"
        }
      ],
      "stateMutability": "view",
      "type": "function"
    },
    {
      "inputs": [
        {
          "internalType": "address",
          "name": "to",
          "type": "address"
        },
        {
          "internalType": "uint256",
          "name": "amount",
          "type": "uint256"
        }
      ],
      "name": "transfer",
      "outputs": [
        {
          "internalType": "bool",
          "name": "",
          "type": "bool"
        }
      ],
      "stateMutability": "nonpayable",
      "type": "function"
    },
    {
      "inputs": [
        {
          "internalType": "address",
          "name": "from",
          "type": "address"
        },
        {
          "internalType": "address",
          "name": "to",
          "type": "address"
        },
        {
          "internalType": "uint256",
          "name": "amount",
          "type": "uint256"
        }
      ],
      "name": "transferFrom",
      "outputs": [
        {
          "internalType": "bool",
          "name": "",
          "type": "bool"
        }
      ],
      "stateMutability": "nonpayable",
      "type": "function"
    },
    {
      "inputs": [
        {
          "internalType": "address",
          "name": "newOwner",
          "type": "address"
        }
      ],
      "name": "transferOwnership",
      "outputs": [],
      "stateMutability": "nonpayable",
      "type": "function"
    },
    {
      "inputs": [
        {
          "internalType": "address",
          "name": "account",
          "type": "address"
        },
        {
          "internalType": "uint256",
          "name": "share",
          "type": "uint256"
        }
      ],
      "name": "updateFeeCollectorShare",
      "outputs": [],
      "stateMutability": "nonpayable",
      "type": "function"
    },
    {
      "stateMutability": "payable",
      "type": "receive"
    }
  ],
  "transactionHash": "0xddb4782b27ef1f397a175c829d55b4f81b006aaf902b5f008686b43d02a02cbc",
  "args": [
    "1000000000000000000",
    "0xf8492AfeDC885ef3d443F0f51B81B7e70fBCd516",
    "0x1689E7B1F10000AE47eBfE339a4f69dECd19F602",
    [
      "0x0FbbDDC39cdb1D089779dC770268B1a995Bc527A"
    ],
    [
      100
    ]
  ],
  "numDeployments": 3,
  "solcInputHash": "09ccac8a7d50410eccbaa44074d91d02",
  "bytecode": "0x61016060405260405162005fc338038062005fc3833981016040819052620000279162001487565b600162000037612710876200159d565b6040805160e08101825260018082526101f4602080840182905283850191909152600060608401819052608084015261138860a0840181905260c084015283518085018552600680825265213ab9ba32b960d11b82840181905286518088018852948552603160f81b858501528651808801885291825281840152855180870190965260048652632129aa2960e11b9286019290925289948993899383926003620000e383826200164e565b506004620000f282826200164e565b506200010491508390506005620005f6565b6101205262000115816006620005f6565b61014052815160208084019190912060e052815190820120610100524660a052620001a360e05161010051604080517f8b73c3c69bb8fe3d512ecc4cf759cc79239f7b179b0ffacaa9a75d522b39400f60208201529081019290925260608201524660808201523060a082015260009060c00160405160208183030381529060405280519060200120905090565b60805250503060c052506001600c558051825114620001fc5760405162461bcd60e51b815260206004820152601060248201526f135a5cdb585d18da1959081a5b9c1d5d60821b60448201526064015b60405180910390fd5b603282511115620002465760405162461bcd60e51b8152602060048201526013602482015272546f6f206d616e7920636f6c6c6563746f727360681b6044820152606401620001f3565b60005b8251811015620002b2576200029d8382815181106200026c576200026c6200171a565b60200260200101518383815181106200028957620002896200171a565b60200260200101516200062f60201b60201c565b80620002a98162001730565b91505062000249565b50505060148390556013805460ff60a81b1916600160a81b86151502179055620002d93390565b601380546001600160a01b039283166001600160a01b0319918216179091556011805492851692909116821790556040805163c45a015560e01b81529051620003e4929163c45a01559160048083019260209291908290030181865afa15801562000348573d6000803e3d6000fd5b505050506040513d601f19601f820116820180604052508101906200036e91906200174c565b601154604080516315ab88c960e31b8152905130926001600160a01b03169163ad5c46489160048083019260209291908290030181865afa158015620003b8573d6000803e3d6000fd5b505050506040513d601f19601f82011682018060405250810190620003de91906200174c565b620007a7565b601280546001600160a01b0319166001600160a01b039290921691821790556000908152601760205260408120805460ff191660019081179091556200042b9190620008aa565b6200043a61dead6001620008aa565b62000447306001620008aa565b62000454336001620008aa565b6200045f8162000963565b505050506200047d62000477620007a360201b60201c565b62000c59565b60008511620004cf5760405162461bcd60e51b815260206004820152601d60248201527f496e697469616c20737570706c792063616e6e6f74206265207a65726f0000006044820152606401620001f3565b603282511115620005195760405162461bcd60e51b8152602060048201526013602482015272546f6f206d616e7920636f6c6c6563746f727360681b6044820152606401620001f3565b6000846001600160a01b03163460405160006040518083038185875af1925050503d806000811462000568576040519150601f19603f3d011682016040523d82523d6000602084013e6200056d565b606091505b5050905080620005cb5760405162461bcd60e51b815260206004820152602260248201527f455448207472616e7366657220746f206665655265636569766572206661696c604482015261195960f21b6064820152608401620001f3565b620005d7338762000cab565b5050601980546001600160a01b03191633179055506200183092505050565b600060208351101562000616576200060e8362000cbb565b905062000629565b816200062384826200164e565b5060ff90505b92915050565b6200063c600d8362000cfe565b156200067f5760405162461bcd60e51b815260206004820152601160248201527020b63932b0b23c9031b7b63632b1ba37b960791b6044820152606401620001f3565b60326200068d600d62000d23565b10620006dc5760405162461bcd60e51b815260206004820152601660248201527f4d617820636f6c6c6563746f72732072656163686564000000000000000000006044820152606401620001f3565b600081116200071e5760405162461bcd60e51b815260206004820152600d60248201526c496e76616c696420736861726560981b6044820152606401620001f3565b6200072b600d8362000d2e565b506001600160a01b0382166000908152600f60205260408120829055601080548392906200075b9084906200176a565b90915550506040518181526001600160a01b038316907f918584c21fe4a093f5014c0dabaed3e43b642781e27984aef122cae8245fbb23906020015b60405180910390a25050565b3390565b6000806000836001600160a01b0316856001600160a01b031610620007ce578385620007d1565b84845b6040516001600160601b0319606084811b8216602084015283901b1660348201529193509150869060480160405160208183030381529060405280519060200120604051602001620008889291907fff00000000000000000000000000000000000000000000000000000000000000815260609290921b6001600160601b031916600183015260158201527f96e8ac4277198ff8b6f785478aa9a39f403cb768dd02cbee326c3e7da348845f603582015260550190565b60408051601f1981840301815291905280516020909101209695505050505050565b6001600160a01b03821660009081526016602052604090205481151560ff9091161515036200090a5760405162461bcd60e51b815260206004820152600b60248201526a105b1c9958591e481cd95d60aa1b6044820152606401620001f3565b6001600160a01b038216600081815260166020908152604091829020805460ff191685151590811790915591519182527f3499bfcf9673677ba552f3fe2ea274ec7e6246da31c3c87e115b45a9b0db2efb910162000797565b6107d061ffff16816020015161ffff161115620009b55760405162461bcd60e51b815260206004820152600f60248201526e496e76616c6964206275792066656560881b6044820152606401620001f3565b6107d061ffff16816040015161ffff16111562000a085760405162461bcd60e51b815260206004820152601060248201526f496e76616c69642073656c6c2066656560801b6044820152606401620001f3565b6107d061ffff16816060015161ffff16111562000a685760405162461bcd60e51b815260206004820152601460248201527f496e76616c6964207472616e73666572206665650000000000000000000000006044820152606401620001f3565b60008160c001518260a00151836080015162000a85919062001780565b62000a91919062001780565b905061ffff8116158062000aaa575061ffff8116612710145b62000aec5760405162461bcd60e51b8152602060048201526011602482015270496e76616c69642066656520736861726560781b6044820152606401620001f3565b81516015805460208501516040808701516060880151608089015160a08a015160c08b015161ffff9081166b0100000000000000000000000261ffff60581b1992821669010000000000000000000261ffff60481b19948316670100000000000000029490941663ffffffff60381b19958316650100000000000261ffff60281b199784166301000000029790971666ffffffff00000019939099166101000262ffff00199c15159c909c1662ffffff19909a16999099179a909a1716959095179290921716939093179290921716929092179055517ff34b49a91d91598b7774795175736ebf4db4fa5a4edf72772cf50fb27c135efd9062000c4d908490600060e082019050825115158252602083015161ffff80821660208501528060408601511660408501528060608601511660608501528060808601511660808501528060a08601511660a08501528060c08601511660c0850152505092915050565b60405180910390a15050565b601880546001600160a01b038381166001600160a01b0319831681179093556040519116919082907f8be0079c531659141344cd1fd0a4f28419497f9722a3daafe3b4186f6b6457e090600090a35050565b62000cb7828262000d45565b5050565b600080829050601f8151111562000ce9578260405163305a27a960e01b8152600401620001f39190620017a5565b805162000cf682620017f5565b179392505050565b6001600160a01b038116600090815260018301602052604081205415155b9392505050565b600062000629825490565b600062000d1c836001600160a01b03841662000ded565b62000d51828262000e3f565b6001600160e01b0362000d6562000f0c8216565b111562000dce5760405162461bcd60e51b815260206004820152603060248201527f4552433230566f7465733a20746f74616c20737570706c79207269736b73206f60448201526f766572666c6f77696e6720766f74657360801b6064820152608401620001f3565b62000de7600b620019a062000f1260201b178362000f20565b50505050565b600081815260018301602052604081205462000e365750815460018181018455600084815260208082209093018490558454848252828601909352604090209190915562000629565b50600062000629565b6001600160a01b03821662000e975760405162461bcd60e51b815260206004820152601f60248201527f45524332303a206d696e7420746f20746865207a65726f2061646472657373006044820152606401620001f3565b806002600082825462000eab91906200176a565b90915550506001600160a01b038216600081815260208181526040808320805486019055518481527fddf252ad1be2c89b69c2b068fc378daa952ba7f163c4a11628f55a4df523b3ef910160405180910390a362000cb760008383620010ad565b60025490565b600062000d1c82846200176a565b8254600090819081811562000f6f5760008781526020902082016000190160408051808201909152905463ffffffff8116825264010000000090046001600160e01b0316602082015262000f84565b60408051808201909152600080825260208201525b905080602001516001600160e01b0316935062000fa284868860201c565b925060008211801562000fcf575062000fba620010ba565b65ffffffffffff16816000015163ffffffff16145b15620010185762000fe083620010cc565b60008881526020902083016000190180546001600160e01b03929092166401000000000263ffffffff9092169190911790556200109e565b8660405180604001604052806200104662001038620010ba60201b60201c565b65ffffffffffff166200113b565b63ffffffff1681526020016200105c86620010cc565b6001600160e01b0390811690915282546001810184556000938452602093849020835194909301519091166401000000000263ffffffff909316929092179101555b5050935093915050565b505050565b620010a8838383620011a2565b6000620010c743620011d6565b905090565b60006001600160e01b03821115620011375760405162461bcd60e51b815260206004820152602760248201527f53616665436173743a2076616c756520646f65736e27742066697420696e20326044820152663234206269747360c81b6064820152608401620001f3565b5090565b600063ffffffff821115620011375760405162461bcd60e51b815260206004820152602660248201527f53616665436173743a2076616c756520646f65736e27742066697420696e203360448201526532206269747360d01b6064820152608401620001f3565b6001600160a01b03838116600090815260096020526040808220548584168352912054620010a8929182169116836200123f565b600065ffffffffffff821115620011375760405162461bcd60e51b815260206004820152602660248201527f53616665436173743a2076616c756520646f65736e27742066697420696e203460448201526538206269747360d01b6064820152608401620001f3565b816001600160a01b0316836001600160a01b031614158015620012625750600081115b15620010a8576001600160a01b03831615620012ef576001600160a01b0383166000908152600a6020908152604082208291620012ac91906200137a901b620019ac178562000f20565b91509150846001600160a01b031660008051602062005fa38339815191528383604051620012e4929190918252602082015260400190565b60405180910390a250505b6001600160a01b03821615620010a8576001600160a01b0382166000908152600a602090815260408220829162001333919062000f12901b620019a0178562000f20565b91509150836001600160a01b031660008051602062005fa383398151915283836040516200136b929190918252602082015260400190565b60405180910390a25050505050565b600062000d1c82846200181a565b80516001600160a01b0381168114620013a057600080fd5b919050565b634e487b7160e01b600052604160045260246000fd5b604051601f8201601f191681016001600160401b0381118282101715620013e657620013e6620013a5565b604052919050565b60006001600160401b038211156200140a576200140a620013a5565b5060051b60200190565b600082601f8301126200142657600080fd5b815160206200143f6200143983620013ee565b620013bb565b82815260059290921b840181019181810190868411156200145f57600080fd5b8286015b848110156200147c578051835291830191830162001463565b509695505050505050565b600080600080600060a08688031215620014a057600080fd5b855194506020620014b381880162001388565b9450620014c36040880162001388565b60608801519094506001600160401b0380821115620014e157600080fd5b818901915089601f830112620014f657600080fd5b8151620015076200143982620013ee565b81815260059190911b8301840190848101908c8311156200152757600080fd5b938501935b828510156200155057620015408562001388565b825293850193908501906200152c565b60808c015190975094505050808311156200156a57600080fd5b50506200157a8882890162001414565b9150509295509295909350565b634e487b7160e01b600052601160045260246000fd5b600082620015bb57634e487b7160e01b600052601260045260246000fd5b500490565b600181811c90821680620015d557607f821691505b602082108103620015f657634e487b7160e01b600052602260045260246000fd5b50919050565b601f821115620010a857600081815260208120601f850160051c81016020861015620016255750805b601f850160051c820191505b81811015620016465782815560010162001631565b505050505050565b81516001600160401b038111156200166a576200166a620013a5565b62001682816200167b8454620015c0565b84620015fc565b602080601f831160018114620016ba5760008415620016a15750858301515b600019600386901b1c1916600185901b17855562001646565b600085815260208120601f198616915b82811015620016eb57888601518255948401946001909101908401620016ca565b50858210156200170a5787850151600019600388901b60f8161c191681555b5050505050600190811b01905550565b634e487b7160e01b600052603260045260246000fd5b60006001820162001745576200174562001587565b5060010190565b6000602082840312156200175f57600080fd5b62000d1c8262001388565b8082018082111562000629576200062962001587565b61ffff8181168382160190808211156200179e576200179e62001587565b5092915050565b600060208083528351808285015260005b81811015620017d457858101830151858201604001528201620017b6565b506000604082860101526040601f19601f8301168501019250505092915050565b80516020808301519190811015620015f65760001960209190910360031b1b16919050565b8181038181111562000629576200062962001587565b60805160a05160c05160e0516101005161012051610140516147186200188b600039600061134b01526000611320015260006120910152600061206901526000611fc401526000611fee0152600061201801526147186000f3fe6080604052600436106103905760003560e01c8063715018a6116101dc578063a9059cbb11610102578063dd62ed3e116100a0578063f1127ed81161006f578063f1127ed814610b71578063f2fde38b14610bbb578063f4232d2514610bdb578063fccc281314610bfb57600080fd5b8063dd62ed3e14610afb578063dfdc62d614610b1b578063e55096b014610b3b578063e63a391f14610b5b57600080fd5b8063bc063e1a116100dc578063bc063e1a14610a72578063c31c9c0714610a9b578063c3cda52014610abb578063d505accf14610adb57600080fd5b8063a9059cbb14610a1c578063adf1869314610a3c578063b3c6e9ee14610a5c57600080fd5b806391ddadf41161017a5780639ab24eb0116101495780639ab24eb01461099b5780639b61f1d0146109bb5780639e70103d146109dc578063a457c2d7146109fc57600080fd5b806391ddadf41461088957806394b8a703146108b557806395d89b41146108eb57806398c47e8c1461090057600080fd5b80637f5bbb2c116101b65780637f5bbb2c1461080357806384b0196e146108235780638da5cb5b1461084b5780638e539e8c1461086957600080fd5b8063715018a6146107ae57806372bc5583146107c35780637ecebe00146107e357600080fd5b806339509351116102c15780634bf5d7e91161025f5780635cb23e121161022e5780635cb23e12146107005780636f741f2a146107205780636fcfff451461075957806370a082311461078e57600080fd5b80634bf5d7e9146106595780634fbee1931461066e578063587cde1e146106a75780635c19a95c146106e057600080fd5b80633bed93f21161029b5780633bed93f2146105e457806341273657146105f95780634569c44514610619578063490e51471461063957600080fd5b806339509351146105845780633a46b1a8146105a45780633b90b9bf146105c457600080fd5b806323b872dd1161032e578063313ce56711610308578063313ce567146105135780633502628a1461052f5780633644e5151461054f5780633935ebf91461056457600080fd5b806323b872dd1461048e57806326991cc8146104ae5780632b46c6a4146104e657600080fd5b80630a4e42ef1161036a5780630a4e42ef146104175780630f569dad1461043957806318160ddd146104595780631fa67b4d1461046e57600080fd5b806301a6c43b1461039c57806306fdde03146103c5578063095ea7b3146103e757600080fd5b3661039757005b600080fd5b3480156103a857600080fd5b506103b260145481565b6040519081526020015b60405180910390f35b3480156103d157600080fd5b506103da610c11565b6040516103bc9190613fa3565b3480156103f357600080fd5b50610407610402366004613fcb565b610ca3565b60405190151581526020016103bc565b34801561042357600080fd5b50610437610432366004613ff7565b610cbd565b005b34801561044557600080fd5b50610437610454366004614019565b610d22565b34801561046557600080fd5b506002546103b2565b34801561047a57600080fd5b50610437610489366004614032565b610d44565b34801561049a57600080fd5b506104076104a936600461404f565b610d67565b3480156104ba57600080fd5b506012546104ce906001600160a01b031681565b6040516001600160a01b0390911681526020016103bc565b3480156104f257600080fd5b50610506610501366004613ff7565b610d8d565b6040516103bc91906140d4565b34801561051f57600080fd5b50604051600981526020016103bc565b34801561053b57600080fd5b5061043761054a366004613fcb565b610e70565b34801561055b57600080fd5b506103b2610e94565b34801561057057600080fd5b506013546104ce906001600160a01b031681565b34801561059057600080fd5b5061040761059f366004613fcb565b610ea3565b3480156105b057600080fd5b506103b26105bf366004613fcb565b610ec5565b3480156105d057600080fd5b506104076105df366004614032565b610f43565b3480156105f057600080fd5b506103b2603281565b34801561060557600080fd5b50610437610614366004614032565b610f50565b34801561062557600080fd5b50610437610634366004614105565b610f69565b34801561064557600080fd5b50610437610654366004614135565b61102d565b34801561066557600080fd5b506103da611054565b34801561067a57600080fd5b50610407610689366004614032565b6001600160a01b031660009081526016602052604090205460ff1690565b3480156106b357600080fd5b506104ce6106c2366004614032565b6001600160a01b039081166000908152600960205260409020541690565b3480156106ec57600080fd5b506104376106fb366004614032565b6110ec565b34801561070c57600080fd5b5061043761071b366004613ff7565b6110f6565b34801561072c57600080fd5b5061040761073b366004614032565b6001600160a01b031660009081526017602052604090205460ff1690565b34801561076557600080fd5b50610779610774366004614032565b61120f565b60405163ffffffff90911681526020016103bc565b34801561079a57600080fd5b506103b26107a9366004614032565b611231565b3480156107ba57600080fd5b5061043761124c565b3480156107cf57600080fd5b506104376107de366004614032565b611260565b3480156107ef57600080fd5b506103b26107fe366004614032565b611293565b34801561080f57600080fd5b5061043761081e366004614147565b6112b1565b34801561082f57600080fd5b50610838611312565b6040516103bc9796959493929190614164565b34801561085757600080fd5b506018546001600160a01b03166104ce565b34801561087557600080fd5b506103b2610884366004614019565b61139b565b34801561089557600080fd5b5061089e611402565b60405165ffffffffffff90911681526020016103bc565b3480156108c157600080fd5b506103b26108d0366004614032565b6001600160a01b03166000908152600f602052604090205490565b3480156108f757600080fd5b506103da61140d565b34801561090c57600080fd5b506015546109599060ff81169061ffff610100820481169163010000008104821691650100000000008204811691600160381b8104821691600160481b8204811691600160581b90041687565b60408051971515885261ffff968716602089015294861694870194909452918416606086015283166080850152821660a08401521660c082015260e0016103bc565b3480156109a757600080fd5b506103b26109b6366004614032565b61141c565b3480156109c757600080fd5b5060135461040790600160a81b900460ff1681565b3480156109e857600080fd5b506019546104ce906001600160a01b031681565b348015610a0857600080fd5b50610407610a17366004613fcb565b61149e565b348015610a2857600080fd5b50610407610a37366004613fcb565b611524565b348015610a4857600080fd5b50610437610a573660046141fa565b611532565b348015610a6857600080fd5b506103b260105481565b348015610a7e57600080fd5b50610a886107d081565b60405161ffff90911681526020016103bc565b348015610aa757600080fd5b506011546104ce906001600160a01b031681565b348015610ac757600080fd5b50610437610ad6366004614239565b61154c565b348015610ae757600080fd5b50610437610af6366004614293565b611682565b348015610b0757600080fd5b506103b2610b16366004614301565b6117e6565b348015610b2757600080fd5b50610437610b36366004614032565b611811565b348015610b4757600080fd5b50610437610b563660046141fa565b611872565b348015610b6757600080fd5b50610a8861271081565b348015610b7d57600080fd5b50610b91610b8c36600461432f565b61188c565b60408051825163ffffffff1681526020928301516001600160e01b031692810192909252016103bc565b348015610bc757600080fd5b50610437610bd6366004614032565b611910565b348015610be757600080fd5b50610437610bf6366004613fcb565b611986565b348015610c0757600080fd5b506104ce61dead81565b606060038054610c2090614366565b80601f0160208091040260200160405190810160405280929190818152602001828054610c4c90614366565b8015610c995780601f10610c6e57610100808354040283529160200191610c99565b820191906000526020600020905b815481529060010190602001808311610c7c57829003601f168201915b5050505050905090565b600033610cb18185856119b8565b60019150505b92915050565b610cc5611adc565b610cce30611231565b821115610d145760405162461bcd60e51b815260206004820152600f60248201526e082dadeeadce840e8dede40d0d2ced608b1b60448201526064015b60405180910390fd5b610d1e8282611b36565b5050565b610d2a611adc565b610d32611c9a565b6014819055610d416001600c55565b50565b610d4c611adc565b610d54611c9a565b610d5d81611cf3565b610d416001600c55565b600033610d75858285611dbd565b610d80858585611e37565b60019150505b9392505050565b60608183610d9b600d611e42565b610da591906143b0565b811115610dc45783610db7600d611e42565b610dc191906143b0565b90505b60008167ffffffffffffffff811115610ddf57610ddf6143c3565b604051908082528060200260200182016040528015610e08578160200160208202803683370190505b50905060005b82811015610e6757610e2b610e2382886143d9565b600d90611e4c565b828281518110610e3d57610e3d6143ec565b6001600160a01b039092166020928302919091019091015280610e5f81614402565b915050610e0e565b50949350505050565b610e78611adc565b610e80611c9a565b610e8a8282611e58565b610d1e6001600c55565b6000610e9e611fb7565b905090565b600033610cb1818585610eb683836117e6565b610ec091906143d9565b6119b8565b6000610ecf611402565b65ffffffffffff168210610f215760405162461bcd60e51b815260206004820152601960248201527804552433230566f7465733a20667574757265206c6f6f6b757603c1b6044820152606401610d0b565b6001600160a01b0383166000908152600a60205260409020610d8690836120e2565b6000610cb7600d836121cb565b610f58611adc565b610f60611c9a565b610d5d816121ed565b610f71611adc565b8015610fd45781610f8130611231565b1015610fcf5760405162461bcd60e51b815260206004820152601860248201527f4e6f7420656e6f75676820746f6b656e2062616c616e636500000000000000006044820152606401610d0b565b61101d565b8147101561101d5760405162461bcd60e51b81526020600482015260166024820152754e6f7420656e6f756768204554482062616c616e636560501b6044820152606401610d0b565b61102830838361252a565b505050565b611035611adc565b61103d611c9a565b610d5d61104f3683900383018361442d565b6127e0565b60604361105f611402565b65ffffffffffff16146110b45760405162461bcd60e51b815260206004820152601d60248201527f4552433230566f7465733a2062726f6b656e20636c6f636b206d6f64650000006044820152606401610d0b565b5060408051808201909152601d81527f6d6f64653d626c6f636b6e756d6265722666726f6d3d64656661756c74000000602082015290565b610d413382612ab9565b6019546001600160a01b031633146111455760405162461bcd60e51b81526020600482015260126024820152712737ba103a30bc2930ba32aab83230ba32b960711b6044820152606401610d0b565b61114d611c9a565b6107d0821180159061116157506107d08111155b61119c5760405162461bcd60e51b815260206004820152600c60248201526b0a8c2f040e8dede40d0d2ced60a31b6044820152606401610d0b565b6015805461ffff83811663010000000264ffff00000019918616610100029190911664ffffffff0019909216919091171781556040517ff34b49a91d91598b7774795175736ebf4db4fa5a4edf72772cf50fb27c135efd916111fd916144eb565b60405180910390a1610d1e6001600c55565b6001600160a01b0381166000908152600a6020526040812054610cb790612b48565b6001600160a01b031660009081526020819052604090205490565b611254611adc565b61125e6000612bb1565b565b611268611adc565b611270611c9a565b601380546001600160a01b0319166001600160a01b0383161790556001600c5550565b6001600160a01b038116600090815260076020526040812054610cb7565b6112b9611adc565b6112c1611c9a565b801515601360159054906101000a900460ff161515036112f35760405162461bcd60e51b8152600401610d0b90614568565b6013805460ff60a81b1916600160a81b831515021790556001600c5550565b6000606080828080836113467f00000000000000000000000000000000000000000000000000000000000000006005612c03565b6113717f00000000000000000000000000000000000000000000000000000000000000006006612c03565b60408051600080825260208201909252600f60f81b9b939a50919850469750309650945092509050565b60006113a5611402565b65ffffffffffff1682106113f75760405162461bcd60e51b815260206004820152601960248201527804552433230566f7465733a20667574757265206c6f6f6b757603c1b6044820152606401610d0b565b610cb7600b836120e2565b6000610e9e43612cae565b606060048054610c2090614366565b6001600160a01b0381166000908152600a6020526040812054801561148b576001600160a01b0383166000908152600a6020526040902080546000198301908110611469576114696143ec565b60009182526020909120015464010000000090046001600160e01b031661148e565b60005b6001600160e01b03169392505050565b600033816114ac82866117e6565b90508381101561150c5760405162461bcd60e51b815260206004820152602560248201527f45524332303a2064656372656173656420616c6c6f77616e63652062656c6f77604482015264207a65726f60d81b6064820152608401610d0b565b61151982868684036119b8565b506001949350505050565b600033610cb1818585611e37565b61153a611adc565b611542611c9a565b610e8a8282612d15565b8342111561159c5760405162461bcd60e51b815260206004820152601d60248201527f4552433230566f7465733a207369676e617475726520657870697265640000006044820152606401610d0b565b604080517fe48329057bfd03d55e49b547132e39cffd9c1820ad7b9d4c5307691425d15adf60208201526001600160a01b0388169181019190915260608101869052608081018590526000906116169061160e9060a00160405160208183030381529060405280519060200120612dad565b858585612dda565b905061162181612e02565b861461166f5760405162461bcd60e51b815260206004820152601960248201527f4552433230566f7465733a20696e76616c6964206e6f6e6365000000000000006044820152606401610d0b565b6116798188612ab9565b50505050505050565b834211156116d25760405162461bcd60e51b815260206004820152601d60248201527f45524332305065726d69743a206578706972656420646561646c696e650000006044820152606401610d0b565b60007f6e71edae12b1b97f4d1f60370fef10105fa2faae0126114a169c64845d6126c98888886117018c612e02565b6040805160208101969096526001600160a01b0394851690860152929091166060840152608083015260a082015260c0810186905260e001604051602081830303815290604052805190602001209050600061175c82612dad565b9050600061176c82878787612dda565b9050896001600160a01b0316816001600160a01b0316146117cf5760405162461bcd60e51b815260206004820152601e60248201527f45524332305065726d69743a20696e76616c6964207369676e617475726500006044820152606401610d0b565b6117da8a8a8a6119b8565b50505050505050505050565b6001600160a01b03918216600090815260016020908152604080832093909416825291909152205490565b611819611adc565b611821611c9a565b601980546001600160a01b0319166001600160a01b0383169081179091556040517f9303ecbbfa9686993e20c6f50ad460bbf48268e45fab9bb5090bd6160f83217590600090a2610d416001600c55565b61187a611adc565b611882611c9a565b610e8a8282612e2a565b60408051808201909152600080825260208201526001600160a01b0383166000908152600a60205260409020805463ffffffff84169081106118d0576118d06143ec565b60009182526020918290206040805180820190915291015463ffffffff8116825264010000000090046001600160e01b0316918101919091529392505050565b611918611adc565b6001600160a01b03811661197d5760405162461bcd60e51b815260206004820152602660248201527f4f776e61626c653a206e6577206f776e657220697320746865207a65726f206160448201526564647265737360d01b6064820152608401610d0b565b610d4181612bb1565b61198e611adc565b611996611c9a565b610e8a8282612ec2565b6000610d8682846143d9565b6000610d8682846143b0565b6001600160a01b038316611a1a5760405162461bcd60e51b8152602060048201526024808201527f45524332303a20617070726f76652066726f6d20746865207a65726f206164646044820152637265737360e01b6064820152608401610d0b565b6001600160a01b038216611a7b5760405162461bcd60e51b815260206004820152602260248201527f45524332303a20617070726f766520746f20746865207a65726f206164647265604482015261737360f01b6064820152608401610d0b565b6001600160a01b0383811660008181526001602090815260408083209487168084529482529182902085905590518481527f8c5be1e5ebec7d5bd14f71427d1e84f3dd0314c0f7b2291e5b200ac8c7c3b925910160405180910390a3505050565b6018546001600160a01b0316331461125e5760405162461bcd60e51b815260206004820181905260248201527f4f776e61626c653a2063616c6c6572206973206e6f7420746865206f776e65726044820152606401610d0b565b6013805460ff60a01b1916600160a01b1790556000611b5430611231565b9050828110611c8757601554600090611b7a90600160381b900461ffff1661271061458d565b60155461ffff91821691611b9691600160481b900416866145a8565b611ba091906145d5565b90506000611baf6002836145d5565b90506000611bbd83876143b0565b90506000611bcb83856143b0565b60155490915060ff16611be557611be282826143d9565b90505b8015611c5757601254611c00906001600160a01b0316611231565b600003611c11575050505050611c89565b47611c1c8288612ff7565b6000611c2882476143b0565b9050600083611c3787846145a8565b611c4191906145d5565b90508015611c5357611c538682613148565b5050505b60155460ff1615611c7457611c6e3083600161252a565b50611c82565b611c803047600061252a565b505b505050505b505b50506013805460ff60a01b19169055565b6002600c5403611cec5760405162461bcd60e51b815260206004820152601f60248201527f5265656e7472616e637947756172643a207265656e7472616e742063616c6c006044820152606401610d0b565b6002600c55565b611cfe600d826121cb565b611d3c5760405162461bcd60e51b815260206004820152600f60248201526e2737ba10309031b7b63632b1ba37b960891b6044820152606401610d0b565b611d47600d826131fc565b506001600160a01b0381166000908152600f60205260408120546010805491929091611d749084906143b0565b90915550506001600160a01b0381166000818152600f6020526040808220829055517f904316769e154356a5e4aad5d41591b55913c7717fab281d818c1fed7d80e8149190a250565b6000611dc984846117e6565b90506000198114611e315781811015611e245760405162461bcd60e51b815260206004820152601d60248201527f45524332303a20696e73756666696369656e7420616c6c6f77616e63650000006044820152606401610d0b565b611e3184848484036119b8565b50505050565b611028838383613211565b6000610cb7825490565b6000610d8683836134b1565b611e63600d836121cb565b15611ea45760405162461bcd60e51b815260206004820152601160248201527020b63932b0b23c9031b7b63632b1ba37b960791b6044820152606401610d0b565b6032611eb0600d611e42565b10611ef65760405162461bcd60e51b815260206004820152601660248201527513585e0818dbdb1b1958dd1bdc9cc81c995858da195960521b6044820152606401610d0b565b60008111611f365760405162461bcd60e51b815260206004820152600d60248201526c496e76616c696420736861726560981b6044820152606401610d0b565b611f41600d836134db565b506001600160a01b0382166000908152600f6020526040812082905560108054839290611f6f9084906143d9565b90915550506040518181526001600160a01b038316907f918584c21fe4a093f5014c0dabaed3e43b642781e27984aef122cae8245fbb23906020015b60405180910390a25050565b6000306001600160a01b037f00000000000000000000000000000000000000000000000000000000000000001614801561201057507f000000000000000000000000000000000000000000000000000000000000000046145b1561203a57507f000000000000000000000000000000000000000000000000000000000000000090565b610e9e604080517f8b73c3c69bb8fe3d512ecc4cf759cc79239f7b179b0ffacaa9a75d522b39400f60208201527f0000000000000000000000000000000000000000000000000000000000000000918101919091527f000000000000000000000000000000000000000000000000000000000000000060608201524660808201523060a082015260009060c00160405160208183030381529060405280519060200120905090565b81546000908181600581111561213c5760006120fd846134f0565b61210790856143b0565b600088815260209020909150869082015463ffffffff16111561212c5780915061213a565b6121378160016143d9565b92505b505b8082101561218957600061215083836135d8565b600088815260209020909150869082015463ffffffff16111561217557809150612183565b6121808160016143d9565b92505b5061213c565b80156121b5576000868152602090208101600019015464010000000090046001600160e01b03166121b8565b60005b6001600160e01b03169695505050505050565b6001600160a01b03811660009081526001830160205260408120541515610d86565b6001600160a01b0381166122345760405162461bcd60e51b815260206004820152600e60248201526d24b73b30b634b2103937baba32b960911b6044820152606401610d0b565b601180546001600160a01b0319166001600160a01b0383169081179091556040805163c45a015560e01b815290516000929163c45a01559160048083019260209291908290030181865afa158015612290573d6000803e3d6000fd5b505050506040513d601f19601f820116820180604052508101906122b491906145f7565b90506001600160a01b0381166122fe5760405162461bcd60e51b815260206004820152600f60248201526e496e76616c696420666163746f727960881b6044820152606401610d0b565b601154604080516315ab88c960e31b815290516000926001600160a01b03169163ad5c46489160048083019260209291908290030181865afa158015612348573d6000803e3d6000fd5b505050506040513d601f19601f8201168201806040525081019061236c91906145f7565b60405163e6a4390560e01b81523060048201526001600160a01b0380831660248301529192509083169063e6a4390590604401602060405180830381865afa1580156123bc573d6000803e3d6000fd5b505050506040513d601f19601f820116820180604052508101906123e091906145f7565b601280546001600160a01b0319166001600160a01b03929092169182179055612496576040516364e329cb60e11b81523060048201526001600160a01b03828116602483015283169063c9c65396906044016020604051808303816000875af1158015612451573d6000803e3d6000fd5b505050506040513d601f19601f8201168201806040525081019061247591906145f7565b601280546001600160a01b0319166001600160a01b03929092169190911790555b6012546001600160a01b03166124e65760405162461bcd60e51b815260206004820152601560248201527424b73b30b634b2103830b4b91030b2323932b9b99760591b6044820152606401610d0b565b6012546011546040516001600160a01b0392831692909116907fca394f95d8dbf1e8b2e76b9a8da90cacce1da85181a65508dab13212dc1df53b90600090a3505050565b60008215806125395750601054155b1561254657506000610d86565b600080612553600d611e42565b905060005b8181101561278457600061256d600d83611e4c565b9050600061257c6001856143b0565b83146125b7576010546001600160a01b0383166000908152600f60205260409020546125a8908a6145a8565b6125b291906145d5565b6125c1565b6125c185896143b0565b905086156126855760405163a9059cbb60e01b81526001600160a01b038381166004830152602482018390528a169063a9059cbb906044016020604051808303816000875af1158015612618573d6000803e3d6000fd5b505050506040513d601f19601f8201168201806040525081019061263c9190614614565b6126805760405162461bcd60e51b8152602060048201526015602482015274151bdad95b881d1c985b9cd9995c8819985a5b1959605a1b6044820152606401610d0b565b612720565b6000826001600160a01b03168260405160006040518083038185875af1925050503d80600081146126d2576040519150601f19603f3d011682016040523d82523d6000602084013e6126d7565b606091505b505090508061271e5760405162461bcd60e51b8152602060048201526013602482015272115512081d1c985b9cd9995c8819985a5b1959606a1b6044820152606401610d0b565b505b816001600160a01b03167f06c5efeff5c320943d265dc4e5f1af95ad523555ce0c1957e367dda5514572df8260405161275b91815260200190565b60405180910390a261276d81866143d9565b94505050808061277c90614402565b915050612558565b508482146127d45760405162461bcd60e51b815260206004820152601960248201527f46656520646973747269627574696f6e206d69736d61746368000000000000006044820152606401610d0b565b50600195945050505050565b6107d061ffff16816020015161ffff1611156128305760405162461bcd60e51b815260206004820152600f60248201526e496e76616c6964206275792066656560881b6044820152606401610d0b565b6107d061ffff16816040015161ffff1611156128815760405162461bcd60e51b815260206004820152601060248201526f496e76616c69642073656c6c2066656560801b6044820152606401610d0b565b6107d061ffff16816060015161ffff1611156128d65760405162461bcd60e51b8152602060048201526014602482015273496e76616c6964207472616e736665722066656560601b6044820152606401610d0b565b60008160c001518260a0015183608001516128f19190614631565b6128fb9190614631565b905061ffff81161580612913575061ffff8116612710145b6129535760405162461bcd60e51b8152602060048201526011602482015270496e76616c69642066656520736861726560781b6044820152606401610d0b565b81516015805460208501516040808701516060880151608089015160a08a015160c08b015161ffff908116600160581b0261ffff60581b19928216600160481b026affff00000000000000000019948316600160381b02949094166affffffff0000000000000019958316650100000000000266ffff0000000000199784166301000000029790971666ffffffff00000019939099166101000262ffff00199c15159c909c1662ffffff19909a16999099179a909a1716959095179290921716939093179290921716929092179055517ff34b49a91d91598b7774795175736ebf4db4fa5a4edf72772cf50fb27c135efd90612aad908490600060e082019050825115158252602083015161ffff80821660208501528060408601511660408501528060608601511660608501528060808601511660808501528060a08601511660a08501528060c08601511660c0850152505092915050565b60405180910390a15050565b6001600160a01b0382811660009081526009602052604081205490911690612ae084611231565b6001600160a01b0385811660008181526009602052604080822080546001600160a01b031916898616908117909155905194955093928616927f3134e8a2e6d97e929a7e54011ea5485d7d196dd5f0ba4d4ef95803e8e3fc257f9190a4611e318284836135f3565b600063ffffffff821115612bad5760405162461bcd60e51b815260206004820152602660248201527f53616665436173743a2076616c756520646f65736e27742066697420696e203360448201526532206269747360d01b6064820152608401610d0b565b5090565b601880546001600160a01b038381166001600160a01b0319831681179093556040519116919082907f8be0079c531659141344cd1fd0a4f28419497f9722a3daafe3b4186f6b6457e090600090a35050565b606060ff8314612c1d57612c1683613730565b9050610cb7565b818054612c2990614366565b80601f0160208091040260200160405190810160405280929190818152602001828054612c5590614366565b8015612ca25780601f10612c7757610100808354040283529160200191612ca2565b820191906000526020600020905b815481529060010190602001808311612c8557829003601f168201915b50505050509050610cb7565b600065ffffffffffff821115612bad5760405162461bcd60e51b815260206004820152602660248201527f53616665436173743a2076616c756520646f65736e27742066697420696e203460448201526538206269747360d01b6064820152608401610d0b565b6001600160a01b03821660009081526016602052604090205481151560ff909116151503612d555760405162461bcd60e51b8152600401610d0b90614568565b6001600160a01b038216600081815260166020908152604091829020805460ff191685151590811790915591519182527f3499bfcf9673677ba552f3fe2ea274ec7e6246da31c3c87e115b45a9b0db2efb9101611fab565b6000610cb7612dba611fb7565b8360405161190160f01b8152600281019290925260228201526042902090565b6000806000612deb8787878761376f565b91509150612df881613833565b5095945050505050565b6001600160a01b03811660009081526007602052604090208054600181018255905b50919050565b6001600160a01b03821660009081526017602052604090205481151560ff909116151503612e6a5760405162461bcd60e51b8152600401610d0b90614568565b6001600160a01b038216600081815260176020908152604091829020805460ff191685151590811790915591519182527f902b2ea0acdec5a260e398590d055fe29bd61ef5dd41e45db54a4cd98d5569e09101611fab565b612ecd600d836121cb565b612f0b5760405162461bcd60e51b815260206004820152600f60248201526e2737ba10309031b7b63632b1ba37b960891b6044820152606401610d0b565b60008111612f4b5760405162461bcd60e51b815260206004820152600d60248201526c496e76616c696420736861726560981b6044820152606401610d0b565b6001600160a01b0382166000908152600f60205260408120546010805491928392612f779084906143b0565b90915550506001600160a01b0383166000908152600f6020526040812083905560108054849290612fa99084906143d9565b909155505060408051828152602081018490526001600160a01b038516917fd350c3685bdab1285c0b97ffb6e96d96ed0ad4578a135c38250e771e7cb831aa910160405180910390a2505050565b604080516002808252606082018352600092602083019080368337019050509050308160008151811061302c5761302c6143ec565b6001600160a01b03928316602091820292909201810191909152601154604080516315ab88c960e31b81529051919093169263ad5c46489260048083019391928290030181865afa158015613085573d6000803e3d6000fd5b505050506040513d601f19601f820116820180604052508101906130a991906145f7565b816001815181106130bc576130bc6143ec565b6001600160a01b0392831660209182029290920101526011546130e291309116856119b8565b60115460405163791ac94760e01b81526001600160a01b039091169063791ac9479061311a908690869086903090429060040161464c565b600060405180830381600087803b15801561313457600080fd5b505af1158015611679573d6000803e3d6000fd5b6011546131609030906001600160a01b0316846119b8565b60115460135460405163f305d71960e01b81523060048201526024810185905260006044820181905260648201526001600160a01b0391821660848201524260a482015291169063f305d71990839060c40160606040518083038185885af11580156131d0573d6000803e3d6000fd5b50505050506040513d601f19601f820116820180604052508101906131f59190614688565b5050505050565b6000610d86836001600160a01b03841661397d565b600081116132515760405162461bcd60e51b815260206004820152600d60248201526c05472616e73666572203c3d203609c1b6044820152606401610d0b565b6013546000908190600160a01b900460ff161580156132795750601354600160a81b900460ff165b9050600061329f866001600160a01b031660009081526017602052604090205460ff1690565b905060006132c5866001600160a01b031660009081526017602052604090205460ff1690565b601354909150600160a01b900460ff166133c4576001600160a01b0387811660009081526016602052604080822054928916825290205460ff918216911683801561330e575082155b8015613318575080155b801561333257506011546001600160a01b03898116911614155b1561334a57601554610100900461ffff1695506133c1565b828015613355575081155b801561335f575080155b15613379576015546301000000900461ffff1695506133c1565b83158015613385575082155b801561339f57506011546001600160a01b038a8116911614155b80156133a9575081155b156133c15760155465010000000000900461ffff1695505b50505b8280156133d15750600084115b80156133da5750805b156134025760006133ea30611231565b9050601454811061340057613400816000611b36565b505b83156134a657600061271061341786886145a8565b61342191906145d5565b9050600061342f82886143b0565b6015549091506000906127109061345190600160381b900461ffff16856145a8565b61345b91906145d5565b9050801561347c5761346d81846143b0565b925061347c8a61dead83613a77565b821561348d5761348d8a3085613a77565b811561349e5761349e8a8a84613a77565b505050611679565b611679878787613a77565b60008260000182815481106134c8576134c86143ec565b9060005260206000200154905092915050565b6000610d86836001600160a01b038416613c21565b60008160000361350257506000919050565b6000600161350f84613c70565b901c6001901b90506001818481613528576135286145bf565b048201901c90506001818481613540576135406145bf565b048201901c90506001818481613558576135586145bf565b048201901c90506001818481613570576135706145bf565b048201901c90506001818481613588576135886145bf565b048201901c905060018184816135a0576135a06145bf565b048201901c905060018184816135b8576135b86145bf565b048201901c9050610d86818285816135d2576135d26145bf565b04613d04565b60006135e760028484186145d5565b610d86908484166143d9565b816001600160a01b0316836001600160a01b0316141580156136155750600081115b15611028576001600160a01b038316156136a3576001600160a01b0383166000908152600a602052604081208190613650906119ac85613d1a565b91509150846001600160a01b03167fdec2bacdd2f05b59de34da9b523dff8be42e5e38e818c82fdb0bae774387a7248383604051613698929190918252602082015260400190565b60405180910390a250505b6001600160a01b03821615611028576001600160a01b0382166000908152600a6020526040812081906136d9906119a085613d1a565b91509150836001600160a01b03167fdec2bacdd2f05b59de34da9b523dff8be42e5e38e818c82fdb0bae774387a7248383604051613721929190918252602082015260400190565b60405180910390a25050505050565b6060600061373d83613e8f565b604080516020808252818301909252919250600091906020820181803683375050509182525060208101929092525090565b6000807f7fffffffffffffffffffffffffffffff5d576e7357a4501ddfe92f46681b20a08311156137a6575060009050600361382a565b6040805160008082526020820180845289905260ff881692820192909252606081018690526080810185905260019060a0016020604051602081039080840390855afa1580156137fa573d6000803e3d6000fd5b5050604051601f1901519150506001600160a01b0381166138235760006001925092505061382a565b9150600090505b94509492505050565b6000816004811115613847576138476146b6565b0361384f5750565b6001816004811115613863576138636146b6565b036138b05760405162461bcd60e51b815260206004820152601860248201527f45434453413a20696e76616c6964207369676e617475726500000000000000006044820152606401610d0b565b60028160048111156138c4576138c46146b6565b036139115760405162461bcd60e51b815260206004820152601f60248201527f45434453413a20696e76616c6964207369676e6174757265206c656e677468006044820152606401610d0b565b6003816004811115613925576139256146b6565b03610d415760405162461bcd60e51b815260206004820152602260248201527f45434453413a20696e76616c6964207369676e6174757265202773272076616c604482015261756560f01b6064820152608401610d0b565b60008181526001830160205260408120548015613a665760006139a16001836143b0565b85549091506000906139b5906001906143b0565b9050818114613a1a5760008660000182815481106139d5576139d56143ec565b90600052602060002001549050808760000184815481106139f8576139f86143ec565b6000918252602080832090910192909255918252600188019052604090208390555b8554869080613a2b57613a2b6146cc565b600190038181906000526020600020016000905590558560010160008681526020019081526020016000206000905560019350505050610cb7565b6000915050610cb7565b5092915050565b6001600160a01b038316613adb5760405162461bcd60e51b815260206004820152602560248201527f45524332303a207472616e736665722066726f6d20746865207a65726f206164604482015264647265737360d81b6064820152608401610d0b565b6001600160a01b038216613b3d5760405162461bcd60e51b815260206004820152602360248201527f45524332303a207472616e7366657220746f20746865207a65726f206164647260448201526265737360e81b6064820152608401610d0b565b6001600160a01b03831660009081526020819052604090205481811015613bb55760405162461bcd60e51b815260206004820152602660248201527f45524332303a207472616e7366657220616d6f756e7420657863656564732062604482015265616c616e636560d01b6064820152608401610d0b565b6001600160a01b03848116600081815260208181526040808320878703905593871680835291849020805487019055925185815290927fddf252ad1be2c89b69c2b068fc378daa952ba7f163c4a11628f55a4df523b3ef910160405180910390a3611e31848484613eb7565b6000818152600183016020526040812054613c6857508154600181810184556000848152602080822090930184905584548482528286019093526040902091909155610cb7565b506000610cb7565b600080608083901c15613c8557608092831c92015b604083901c15613c9757604092831c92015b602083901c15613ca957602092831c92015b601083901c15613cbb57601092831c92015b600883901c15613ccd57600892831c92015b600483901c15613cdf57600492831c92015b600283901c15613cf157600292831c92015b600183901c15610cb75760010192915050565b6000818310613d135781610d86565b5090919050565b82546000908190818115613d675760008781526020902082016000190160408051808201909152905463ffffffff8116825264010000000090046001600160e01b03166020820152613d7c565b60408051808201909152600080825260208201525b905080602001516001600160e01b03169350613d9c84868863ffffffff16565b9250600082118015613dc65750613db1611402565b65ffffffffffff16816000015163ffffffff16145b15613e0b57613dd483613ec2565b60008881526020902083016000190180546001600160e01b03929092166401000000000263ffffffff909216919091179055613e85565b866040518060400160405280613e2f613e22611402565b65ffffffffffff16612b48565b63ffffffff168152602001613e4386613ec2565b6001600160e01b0390811690915282546001810184556000938452602093849020835194909301519091166401000000000263ffffffff909316929092179101555b5050935093915050565b600060ff8216601f811115610cb757604051632cd44ac360e21b815260040160405180910390fd5b611028838383613f2b565b60006001600160e01b03821115612bad5760405162461bcd60e51b815260206004820152602760248201527f53616665436173743a2076616c756520646f65736e27742066697420696e20326044820152663234206269747360c81b6064820152608401610d0b565b6001600160a01b03838116600090815260096020526040808220548584168352912054611028929182169116836135f3565b6000815180845260005b81811015613f8357602081850181015186830182015201613f67565b506000602082860101526020601f19601f83011685010191505092915050565b602081526000610d866020830184613f5d565b6001600160a01b0381168114610d4157600080fd5b60008060408385031215613fde57600080fd5b8235613fe981613fb6565b946020939093013593505050565b6000806040838503121561400a57600080fd5b50508035926020909101359150565b60006020828403121561402b57600080fd5b5035919050565b60006020828403121561404457600080fd5b8135610d8681613fb6565b60008060006060848603121561406457600080fd5b833561406f81613fb6565b9250602084013561407f81613fb6565b929592945050506040919091013590565b600081518084526020808501945080840160005b838110156140c95781516001600160a01b0316875295820195908201906001016140a4565b509495945050505050565b602081526000610d866020830184614090565b8015158114610d4157600080fd5b8035614100816140e7565b919050565b6000806040838503121561411857600080fd5b82359150602083013561412a816140e7565b809150509250929050565b600060e08284031215612e2457600080fd5b60006020828403121561415957600080fd5b8135610d86816140e7565b60ff60f81b881681526000602060e08184015261418460e084018a613f5d565b8381036040850152614196818a613f5d565b606085018990526001600160a01b038816608086015260a0850187905284810360c0860152855180825283870192509083019060005b818110156141e8578351835292840192918401916001016141cc565b50909c9b505050505050505050505050565b6000806040838503121561420d57600080fd5b823561421881613fb6565b9150602083013561412a816140e7565b803560ff8116811461410057600080fd5b60008060008060008060c0878903121561425257600080fd5b863561425d81613fb6565b9550602087013594506040870135935061427960608801614228565b92506080870135915060a087013590509295509295509295565b600080600080600080600060e0888a0312156142ae57600080fd5b87356142b981613fb6565b965060208801356142c981613fb6565b955060408801359450606088013593506142e560808901614228565b925060a0880135915060c0880135905092959891949750929550565b6000806040838503121561431457600080fd5b823561431f81613fb6565b9150602083013561412a81613fb6565b6000806040838503121561434257600080fd5b823561434d81613fb6565b9150602083013563ffffffff8116811461412a57600080fd5b600181811c9082168061437a57607f821691505b602082108103612e2457634e487b7160e01b600052602260045260246000fd5b634e487b7160e01b600052601160045260246000fd5b81810381811115610cb757610cb761439a565b634e487b7160e01b600052604160045260246000fd5b80820180821115610cb757610cb761439a565b634e487b7160e01b600052603260045260246000fd5b6000600182016144145761441461439a565b5060010190565b803561ffff8116811461410057600080fd5b600060e0828403121561443f57600080fd5b60405160e0810181811067ffffffffffffffff8211171561447057634e487b7160e01b600052604160045260246000fd5b60405261447c836140f5565b815261448a6020840161441b565b602082015261449b6040840161441b565b60408201526144ac6060840161441b565b60608201526144bd6080840161441b565b60808201526144ce60a0840161441b565b60a08201526144df60c0840161441b565b60c08201529392505050565b600060e082019050825460ff81161515835261ffff808260081c166020850152808260181c166040850152808260281c16606085015261453660808501828460381c1661ffff169052565b61454b60a08501828460481c1661ffff169052565b61456060c08501828460581c1661ffff169052565b505092915050565b6020808252600b908201526a105b1c9958591e481cd95d60aa1b604082015260600190565b61ffff828116828216039080821115613a7057613a7061439a565b8082028115828204841417610cb757610cb761439a565b634e487b7160e01b600052601260045260246000fd5b6000826145f257634e487b7160e01b600052601260045260246000fd5b500490565b60006020828403121561460957600080fd5b8151610d8681613fb6565b60006020828403121561462657600080fd5b8151610d86816140e7565b61ffff818116838216019080821115613a7057613a7061439a565b85815284602082015260a06040820152600061466b60a0830186614090565b6001600160a01b0394909416606083015250608001529392505050565b60008060006060848603121561469d57600080fd5b8351925060208401519150604084015190509250925092565b634e487b7160e01b600052602160045260246000fd5b634e487b7160e01b600052603160045260246000fdfea26469706673582212208d5d881a69b95903d278524f6c7aa707085b0d550f5b55afb62edfc2aa6d01c964736f6c63430008140033dec2bacdd2f05b59de34da9b523dff8be42e5e38e818c82fdb0bae774387a724",
  "devdoc": {
    "events": {
      "Approval(address,address,uint256)": {
        "details": "Emitted when the allowance of a `spender` for an `owner` is set by a call to {approve}. `value` is the new allowance."
      },
      "DelegateChanged(address,address,address)": {
        "details": "Emitted when an account changes their delegate."
      },
      "DelegateVotesChanged(address,uint256,uint256)": {
        "details": "Emitted when a token transfer or delegate change results in changes to a delegate's number of votes."
      },
      "EIP712DomainChanged()": {
        "details": "MAY be emitted to signal that the domain could have changed."
      },
      "Transfer(address,address,uint256)": {
        "details": "Emitted when `value` tokens are moved from one account (`from`) to another (`to`). Note that `value` may be zero."
      }
    },
    "kind": "dev",
    "methods": {
      "CLOCK_MODE()": {
        "details": "Description of the clock"
      },
      "DOMAIN_SEPARATOR()": {
        "details": "Returns the domain separator used in the encoding of the signature for {permit}, as defined by {EIP712}."
      },
      "allowance(address,address)": {
        "details": "See {IERC20-allowance}."
      },
      "approve(address,uint256)": {
        "details": "See {IERC20-approve}. NOTE: If `amount` is the maximum `uint256`, the allowance is not updated on `transferFrom`. This is semantically equivalent to an infinite approval. Requirements: - `spender` cannot be the zero address."
      },
      "balanceOf(address)": {
        "details": "See {IERC20-balanceOf}."
      },
      "checkpoints(address,uint32)": {
        "details": "Get the `pos`-th checkpoint for `account`."
      },
      "clock()": {
        "details": "Clock used for flagging checkpoints. Can be overridden to implement timestamp based checkpoints (and voting)."
      },
      "decimals()": {
        "details": "Returns the number of decimals used to get its user representation. For example, if `decimals` equals `2`, a balance of `505` tokens should be displayed to a user as `5.05` (`505 / 10 ** 2`). Tokens usually opt for a value of 18, imitating the relationship between Ether and Wei. This is the default value returned by this function, unless it's overridden. NOTE: This information is only used for _display_ purposes: it in no way affects any of the arithmetic of the contract, including {IERC20-balanceOf} and {IERC20-transfer}."
      },
      "decreaseAllowance(address,uint256)": {
        "details": "Atomically decreases the allowance granted to `spender` by the caller. This is an alternative to {approve} that can be used as a mitigation for problems described in {IERC20-approve}. Emits an {Approval} event indicating the updated allowance. Requirements: - `spender` cannot be the zero address. - `spender` must have allowance for the caller of at least `subtractedValue`."
      },
      "delegate(address)": {
        "details": "Delegate votes from the sender to `delegatee`."
      },
      "delegateBySig(address,uint256,uint256,uint8,bytes32,bytes32)": {
        "details": "Delegates votes from signer to `delegatee`"
      },
      "delegates(address)": {
        "details": "Get the address `account` is currently delegating to."
      },
      "eip712Domain()": {
        "details": "See {EIP-5267}. _Available since v4.9._"
      },
      "getPastTotalSupply(uint256)": {
        "details": "Retrieve the `totalSupply` at the end of `timepoint`. Note, this value is the sum of all balances. It is NOT the sum of all the delegated votes! Requirements: - `timepoint` must be in the past"
      },
      "getPastVotes(address,uint256)": {
        "details": "Retrieve the number of votes for `account` at the end of `timepoint`. Requirements: - `timepoint` must be in the past"
      },
      "getVotes(address)": {
        "details": "Gets the current votes balance for `account`"
      },
      "increaseAllowance(address,uint256)": {
        "details": "Atomically increases the allowance granted to `spender` by the caller. This is an alternative to {approve} that can be used as a mitigation for problems described in {IERC20-approve}. Emits an {Approval} event indicating the updated allowance. Requirements: - `spender` cannot be the zero address."
      },
      "name()": {
        "details": "Returns the name of the token."
      },
      "nonces(address)": {
        "details": "Returns the current nonce for `owner`. This value must be included whenever a signature is generated for {permit}. Every successful call to {permit} increases ``owner``'s nonce by one. This prevents a signature from being used multiple times."
      },
      "numCheckpoints(address)": {
        "details": "Get number of checkpoints for `account`."
      },
      "owner()": {
        "details": "Returns the address of the current owner."
      },
      "permit(address,address,uint256,uint256,uint8,bytes32,bytes32)": {
        "details": "Sets `value` as the allowance of `spender` over ``owner``'s tokens, given ``owner``'s signed approval. IMPORTANT: The same issues {IERC20-approve} has related to transaction ordering also apply here. Emits an {Approval} event. Requirements: - `spender` cannot be the zero address. - `deadline` must be a timestamp in the future. - `v`, `r` and `s` must be a valid `secp256k1` signature from `owner` over the EIP712-formatted function arguments. - the signature must use ``owner``'s current nonce (see {nonces}). For more information on the signature format, see the https://eips.ethereum.org/EIPS/eip-2612#specification[relevant EIP section]. CAUTION: See Security Considerations above."
      },
      "renounceOwnership()": {
        "details": "Leaves the contract without owner. It will not be possible to call `onlyOwner` functions. Can only be called by the current owner. NOTE: Renouncing ownership will leave the contract without an owner, thereby disabling any functionality that is only available to the owner."
      },
      "symbol()": {
        "details": "Returns the symbol of the token, usually a shorter version of the name."
      },
      "totalSupply()": {
        "details": "See {IERC20-totalSupply}."
      },
      "transfer(address,uint256)": {
        "details": "See {IERC20-transfer}. Requirements: - `to` cannot be the zero address. - the caller must have a balance of at least `amount`."
      },
      "transferFrom(address,address,uint256)": {
        "details": "See {IERC20-transferFrom}. Emits an {Approval} event indicating the updated allowance. This is not required by the EIP. See the note at the beginning of {ERC20}. NOTE: Does not update the allowance if the current allowance is the maximum `uint256`. Requirements: - `from` and `to` cannot be the zero address. - `from` must have a balance of at least `amount`. - the caller must have allowance for ``from``'s tokens of at least `amount`."
      },
      "transferOwnership(address)": {
        "details": "Transfers ownership of the contract to a new account (`newOwner`). Can only be called by the current owner."
      }
    },
    "version": 1
  },
  "userdoc": {
    "kind": "user",
    "methods": {},
    "notice": "[Audit Note - IVotes Integration] Extended from ERC20Votes and ERC20Permit for snapshot-based voting and off-chain vote delegation support (EIP-2612 compliant).",
    "version": 1
  },
  "storageLayout": {
    "storage": [
      {
        "astId": 4755,
        "contract": "contracts/BSTRToken.sol:BSTRToken",
        "label": "_balances",
        "offset": 0,
        "slot": "0",
        "type": "t_mapping(t_address,t_uint256)"
      },
      {
        "astId": 4761,
        "contract": "contracts/BSTRToken.sol:BSTRToken",
        "label": "_allowances",
        "offset": 0,
        "slot": "1",
        "type": "t_mapping(t_address,t_mapping(t_address,t_uint256))"
      },
      {
        "astId": 4763,
        "contract": "contracts/BSTRToken.sol:BSTRToken",
        "label": "_totalSupply",
        "offset": 0,
        "slot": "2",
        "type": "t_uint256"
      },
      {
        "astId": 4765,
        "contract": "contracts/BSTRToken.sol:BSTRToken",
        "label": "_name",
        "offset": 0,
        "slot": "3",
        "type": "t_string_storage"
      },
      {
        "astId": 4767,
        "contract": "contracts/BSTRToken.sol:BSTRToken",
        "label": "_symbol",
        "offset": 0,
        "slot": "4",
        "type": "t_string_storage"
      },
      {
        "astId": 9318,
        "contract": "contracts/BSTRToken.sol:BSTRToken",
        "label": "_nameFallback",
        "offset": 0,
        "slot": "5",
        "type": "t_string_storage"
      },
      {
        "astId": 9320,
        "contract": "contracts/BSTRToken.sol:BSTRToken",
        "label": "_versionFallback",
        "offset": 0,
        "slot": "6",
        "type": "t_string_storage"
      },
      {
        "astId": 5427,
        "contract": "contracts/BSTRToken.sol:BSTRToken",
        "label": "_nonces",
        "offset": 0,
        "slot": "7",
        "type": "t_mapping(t_address,t_struct(Counter)8296_storage)"
      },
      {
        "astId": 5435,
        "contract": "contracts/BSTRToken.sol:BSTRToken",
        "label": "_PERMIT_TYPEHASH_DEPRECATED_SLOT",
        "offset": 0,
        "slot": "8",
        "type": "t_bytes32"
      },
      {
        "astId": 5602,
        "contract": "contracts/BSTRToken.sol:BSTRToken",
        "label": "_delegates",
        "offset": 0,
        "slot": "9",
        "type": "t_mapping(t_address,t_address)"
      },
      {
        "astId": 5608,
        "contract": "contracts/BSTRToken.sol:BSTRToken",
        "label": "_checkpoints",
        "offset": 0,
        "slot": "10",
        "type": "t_mapping(t_address,t_array(t_struct(Checkpoint)5593_storage)dyn_storage)"
      },
      {
        "astId": 5612,
        "contract": "contracts/BSTRToken.sol:BSTRToken",
        "label": "_totalSupplyCheckpoints",
        "offset": 0,
        "slot": "11",
        "type": "t_array(t_struct(Checkpoint)5593_storage)dyn_storage"
      },
      {
        "astId": 4644,
        "contract": "contracts/BSTRToken.sol:BSTRToken",
        "label": "_status",
        "offset": 0,
        "slot": "12",
        "type": "t_uint256"
      },
      {
        "astId": 14255,
        "contract": "contracts/BSTRToken.sol:BSTRToken",
        "label": "_collectors",
        "offset": 0,
        "slot": "13",
        "type": "t_struct(AddressSet)12705_storage"
      },
      {
        "astId": 14259,
        "contract": "contracts/BSTRToken.sol:BSTRToken",
        "label": "_shares",
        "offset": 0,
        "slot": "15",
        "type": "t_mapping(t_address,t_uint256)"
      },
      {
        "astId": 14261,
        "contract": "contracts/BSTRToken.sol:BSTRToken",
        "label": "totalFeeCollectorsShares",
        "offset": 0,
        "slot": "16",
        "type": "t_uint256"
      },
      {
        "astId": 14756,
        "contract": "contracts/BSTRToken.sol:BSTRToken",
        "label": "swapRouter",
        "offset": 0,
        "slot": "17",
        "type": "t_contract(IUniswapV2Router02)13451"
      },
      {
        "astId": 14758,
        "contract": "contracts/BSTRToken.sol:BSTRToken",
        "label": "swapPair",
        "offset": 0,
        "slot": "18",
        "type": "t_address"
      },
      {
        "astId": 14760,
        "contract": "contracts/BSTRToken.sol:BSTRToken",
        "label": "liquidityOwner",
        "offset": 0,
        "slot": "19",
        "type": "t_address"
      },
      {
        "astId": 14762,
        "contract": "contracts/BSTRToken.sol:BSTRToken",
        "label": "_processingFees",
        "offset": 20,
        "slot": "19",
        "type": "t_bool"
      },
      {
        "astId": 14764,
        "contract": "contracts/BSTRToken.sol:BSTRToken",
        "label": "autoProcessFees",
        "offset": 21,
        "slot": "19",
        "type": "t_bool"
      },
      {
        "astId": 14766,
        "contract": "contracts/BSTRToken.sol:BSTRToken",
        "label": "numTokensToSwap",
        "offset": 0,
        "slot": "20",
        "type": "t_uint256"
      },
      {
        "astId": 14769,
        "contract": "contracts/BSTRToken.sol:BSTRToken",
        "label": "feeConfiguration",
        "offset": 0,
        "slot": "21",
        "type": "t_struct(FeeConfiguration)14741_storage"
      },
      {
        "astId": 14773,
        "contract": "contracts/BSTRToken.sol:BSTRToken",
        "label": "_excludedFromFees",
        "offset": 0,
        "slot": "22",
        "type": "t_mapping(t_address,t_bool)"
      },
      {
        "astId": 14777,
        "contract": "contracts/BSTRToken.sol:BSTRToken",
        "label": "_lpPools",
        "offset": 0,
        "slot": "23",
        "type": "t_mapping(t_address,t_bool)"
      },
      {
        "astId": 396,
        "contract": "contracts/BSTRToken.sol:BSTRToken",
        "label": "_owner",
        "offset": 0,
        "slot": "24",
        "type": "t_address"
      },
      {
        "astId": 13469,
        "contract": "contracts/BSTRToken.sol:BSTRToken",
        "label": "taxRateUpdater",
        "offset": 0,
        "slot": "25",
        "type": "t_address"
      }
    ],
    "types": {
      "t_address": {
        "encoding": "inplace",
        "label": "address",
        "numberOfBytes": "20"
      },
      "t_array(t_bytes32)dyn_storage": {
        "base": "t_bytes32",
        "encoding": "dynamic_array",
        "label": "bytes32[]",
        "numberOfBytes": "32"
      },
      "t_array(t_struct(Checkpoint)5593_storage)dyn_storage": {
        "base": "t_struct(Checkpoint)5593_storage",
        "encoding": "dynamic_array",
        "label": "struct ERC20Votes.Checkpoint[]",
        "numberOfBytes": "32"
      },
      "t_bool": {
        "encoding": "inplace",
        "label": "bool",
        "numberOfBytes": "1"
      },
      "t_bytes32": {
        "encoding": "inplace",
        "label": "bytes32",
        "numberOfBytes": "32"
      },
      "t_contract(IUniswapV2Router02)13451": {
        "encoding": "inplace",
        "label": "contract IUniswapV2Router02",
        "numberOfBytes": "20"
      },
      "t_mapping(t_address,t_address)": {
        "encoding": "mapping",
        "key": "t_address",
        "label": "mapping(address => address)",
        "numberOfBytes": "32",
        "value": "t_address"
      },
      "t_mapping(t_address,t_array(t_struct(Checkpoint)5593_storage)dyn_storage)": {
        "encoding": "mapping",
        "key": "t_address",
        "label": "mapping(address => struct ERC20Votes.Checkpoint[])",
        "numberOfBytes": "32",
        "value": "t_array(t_struct(Checkpoint)5593_storage)dyn_storage"
      },
      "t_mapping(t_address,t_bool)": {
        "encoding": "mapping",
        "key": "t_address",
        "label": "mapping(address => bool)",
        "numberOfBytes": "32",
        "value": "t_bool"
      },
      "t_mapping(t_address,t_mapping(t_address,t_uint256))": {
        "encoding": "mapping",
        "key": "t_address",
        "label": "mapping(address => mapping(address => uint256))",
        "numberOfBytes": "32",
        "value": "t_mapping(t_address,t_uint256)"
      },
      "t_mapping(t_address,t_struct(Counter)8296_storage)": {
        "encoding": "mapping",
        "key": "t_address",
        "label": "mapping(address => struct Counters.Counter)",
        "numberOfBytes": "32",
        "value": "t_struct(Counter)8296_storage"
      },
      "t_mapping(t_address,t_uint256)": {
        "encoding": "mapping",
        "key": "t_address",
        "label": "mapping(address => uint256)",
        "numberOfBytes": "32",
        "value": "t_uint256"
      },
      "t_mapping(t_bytes32,t_uint256)": {
        "encoding": "mapping",
        "key": "t_bytes32",
        "label": "mapping(bytes32 => uint256)",
        "numberOfBytes": "32",
        "value": "t_uint256"
      },
      "t_string_storage": {
        "encoding": "bytes",
        "label": "string",
        "numberOfBytes": "32"
      },
      "t_struct(AddressSet)12705_storage": {
        "encoding": "inplace",
        "label": "struct EnumerableSet.AddressSet",
        "members": [
          {
            "astId": 12704,
            "contract": "contracts/BSTRToken.sol:BSTRToken",
            "label": "_inner",
            "offset": 0,
            "slot": "0",
            "type": "t_struct(Set)12390_storage"
          }
        ],
        "numberOfBytes": "64"
      },
      "t_struct(Checkpoint)5593_storage": {
        "encoding": "inplace",
        "label": "struct ERC20Votes.Checkpoint",
        "members": [
          {
            "astId": 5590,
            "contract": "contracts/BSTRToken.sol:BSTRToken",
            "label": "fromBlock",
            "offset": 0,
            "slot": "0",
            "type": "t_uint32"
          },
          {
            "astId": 5592,
            "contract": "contracts/BSTRToken.sol:BSTRToken",
            "label": "votes",
            "offset": 4,
            "slot": "0",
            "type": "t_uint224"
          }
        ],
        "numberOfBytes": "32"
      },
      "t_struct(Counter)8296_storage": {
        "encoding": "inplace",
        "label": "struct Counters.Counter",
        "members": [
          {
            "astId": 8295,
            "contract": "contracts/BSTRToken.sol:BSTRToken",
            "label": "_value",
            "offset": 0,
            "slot": "0",
            "type": "t_uint256"
          }
        ],
        "numberOfBytes": "32"
      },
      "t_struct(FeeConfiguration)14741_storage": {
        "encoding": "inplace",
        "label": "struct TaxableToken.FeeConfiguration",
        "members": [
          {
            "astId": 14728,
            "contract": "contracts/BSTRToken.sol:BSTRToken",
            "label": "feesInToken",
            "offset": 0,
            "slot": "0",
            "type": "t_bool"
          },
          {
            "astId": 14730,
            "contract": "contracts/BSTRToken.sol:BSTRToken",
            "label": "buyFees",
            "offset": 1,
            "slot": "0",
            "type": "t_uint16"
          },
          {
            "astId": 14732,
            "contract": "contracts/BSTRToken.sol:BSTRToken",
            "label": "sellFees",
            "offset": 3,
            "slot": "0",
            "type": "t_uint16"
          },
          {
            "astId": 14734,
            "contract": "contracts/BSTRToken.sol:BSTRToken",
            "label": "transferFees",
            "offset": 5,
            "slot": "0",
            "type": "t_uint16"
          },
          {
            "astId": 14736,
            "contract": "contracts/BSTRToken.sol:BSTRToken",
            "label": "burnFeeRatio",
            "offset": 7,
            "slot": "0",
            "type": "t_uint16"
          },
          {
            "astId": 14738,
            "contract": "contracts/BSTRToken.sol:BSTRToken",
            "label": "liquidityFeeRatio",
            "offset": 9,
            "slot": "0",
            "type": "t_uint16"
          },
          {
            "astId": 14740,
            "contract": "contracts/BSTRToken.sol:BSTRToken",
            "label": "collectorsFeeRatio",
            "offset": 11,
            "slot": "0",
            "type": "t_uint16"
          }
        ],
        "numberOfBytes": "32"
      },
      "t_struct(Set)12390_storage": {
        "encoding": "inplace",
        "label": "struct EnumerableSet.Set",
        "members": [
          {
            "astId": 12385,
            "contract": "contracts/BSTRToken.sol:BSTRToken",
            "label": "_values",
            "offset": 0,
            "slot": "0",
            "type": "t_array(t_bytes32)dyn_storage"
          },
          {
            "astId": 12389,
            "contract": "contracts/BSTRToken.sol:BSTRToken",
            "label": "_indexes",
            "offset": 0,
            "slot": "1",
            "type": "t_mapping(t_bytes32,t_uint256)"
          }
        ],
        "numberOfBytes": "64"
      },
      "t_uint16": {
        "encoding": "inplace",
        "label": "uint16",
        "numberOfBytes": "2"
      },
      "t_uint224": {
        "encoding": "inplace",
        "label": "uint224",
        "numberOfBytes": "28"
      },
      "t_uint256": {
        "encoding": "inplace",
        "label": "uint256",
        "numberOfBytes": "32"
      },
      "t_uint32": {
        "encoding": "inplace",
        "label": "uint32",
        "numberOfBytes": "4"
      }
    }
  }
}